{
  "_format": "hh-sol-artifact-1",
  "contractName": "IPRegistry",
  "sourceName": "contracts/IPRegistry.sol",
  "abi": [
    {
      "anonymous": false,
      "inputs": [
        {
          "indexed": true,
          "internalType": "bytes32",
          "name": "assetId",
          "type": "bytes32"
        },
        {
          "indexed": true,
          "internalType": "address",
          "name": "owner",
          "type": "address"
        },
        {
          "indexed": false,
          "internalType": "string",
          "name": "contentHash",
          "type": "string"
        },
        {
          "indexed": false,
          "internalType": "uint256",
          "name": "timestamp",
          "type": "uint256"
        }
      ],
      "name": "IPRegistered",
      "type": "event"
    },
    {
      "inputs": [
        {
          "internalType": "string",
          "name": "_hash",
          "type": "string"
        }
      ],
      "name": "getDetailsByHash",
      "outputs": [
        {
          "internalType": "address",
          "name": "owner",
          "type": "address"
        },
        {
          "internalType": "uint256",
          "name": "timestamp",
          "type": "uint256"
        },
        {
          "internalType": "string",
          "name": "title",
          "type": "string"
        },
        {
          "internalType": "string",
          "name": "description",
          "type": "string"
        }
      ],
      "stateMutability": "view",
      "type": "function"
    },
    {
      "inputs": [
        {
          "internalType": "bytes32",
          "name": "_assetId",
          "type": "bytes32"
        }
      ],
      "name": "getIPDetails",
      "outputs": [
        {
          "internalType": "address",
          "name": "owner",
          "type": "address"
        },
        {
          "internalType": "string",
          "name": "contentHash",
          "type": "string"
        },
        {
          "internalType": "uint256",
          "name": "timestamp",
          "type": "uint256"
        },
        {
          "internalType": "string",
          "name": "title",
          "type": "string"
        },
        {
          "internalType": "string",
          "name": "description",
          "type": "string"
        }
      ],
      "stateMutability": "view",
      "type": "function"
    },
    {
      "inputs": [
        {
          "internalType": "address",
          "name": "_user",
          "type": "address"
        }
      ],
      "name": "getUserIPs",
      "outputs": [
        {
          "internalType": "bytes32[]",
          "name": "",
          "type": "bytes32[]"
        }
      ],
      "stateMutability": "view",
      "type": "function"
    },
    {
      "inputs": [
        {
          "internalType": "string",
          "name": "",
          "type": "string"
        }
      ],
      "name": "hashToId",
      "outputs": [
        {
          "internalType": "bytes32",
          "name": "",
          "type": "bytes32"
        }
      ],
      "stateMutability": "view",
      "type": "function"
    },
    {
      "inputs": [
        {
          "internalType": "bytes32",
          "name": "",
          "type": "bytes32"
        }
      ],
      "name": "ipAssets",
      "outputs": [
        {
          "internalType": "address",
          "name": "owner",
          "type": "address"
        },
        {
          "internalType": "string",
          "name": "contentHash",
          "type": "string"
        },
        {
          "internalType": "uint256",
          "name": "timestamp",
          "type": "uint256"
        },
        {
          "internalType": "string",
          "name": "title",
          "type": "string"
        },
        {
          "internalType": "string",
          "name": "description",
          "type": "string"
        }
      ],
      "stateMutability": "view",
      "type": "function"
    },
    {
      "inputs": [
        {
          "internalType": "string",
          "name": "_contentHash",
          "type": "string"
        },
        {
          "internalType": "string",
          "name": "_title",
          "type": "string"
        },
        {
          "internalType": "string",
          "name": "_description",
          "type": "string"
        }
      ],
      "name": "registerIP",
      "outputs": [],
      "stateMutability": "nonpayable",
      "type": "function"
    },
    {
      "inputs": [
        {
          "internalType": "address",
          "name": "",
          "type": "address"
        },
        {
          "internalType": "uint256",
          "name": "",
          "type": "uint256"
        }
      ],
      "name": "userIPs",
      "outputs": [
        {
          "internalType": "bytes32",
          "name": "",
          "type": "bytes32"
        }
      ],
      "stateMutability": "view",
      "type": "function"
    }
  ],
  "bytecode": "0x608060405234801561001057600080fd5b50610fbf806100206000396000f3fe608060405234801561001057600080fd5b506004361061007d5760003560e01c806329facb3c1161005b57806329facb3c146100f5578063ab72579214610108578063dce6320d1461012b578063ec863eec1461014f57600080fd5b806307e85e0d14610082578063121b618e146100975780631fbcb72b146100d5575b600080fd5b610095610090366004610b49565b610162565b005b6100c26100a5366004610bd1565b805160208183018101805160028252928201919093012091525481565b6040519081526020015b60405180910390f35b6100e86100e3366004610c2a565b610336565b6040516100cc9190610c4c565b6100c2610103366004610c90565b6103a2565b61011b610116366004610bd1565b6103d3565b6040516100cc9493929190610d0a565b61013e610139366004610d4e565b61065b565b6040516100cc959493929190610d67565b61013e61015d366004610d4e565b6108d5565b60008351116101b85760405162461bcd60e51b815260206004820152601c60248201527f436f6e74656e7420686173682063616e6e6f7420626520656d7074790000000060448201526064015b60405180910390fd5b60003384426040516020016101cf93929190610dc3565b60408051808303601f19018152828252805160209182012060a0840183523384528184018881524285850152606085018890526080850187905260008281529283905292909120835181546001600160a01b0319166001600160a01b03909116178155915190935082919060018201906102499082610e8b565b5060408201516002820155606082015160038201906102689082610e8b565b506080820151600482019061027d9082610e8b565b5050336000908152600160208181526040808420805493840181558452908320909101859055519091506002906102b5908890610f4b565b908152602001604051809103902054036102eb57816002866040516102da9190610f4b565b908152604051908190036020019020555b336001600160a01b0316827ff0952947ee46a2478170bf6845cfebf706a4fdb76177b2beb1adf43fcd9a00d28742604051610327929190610f67565b60405180910390a35050505050565b6001600160a01b03811660009081526001602090815260409182902080548351818402810184019094528084526060939283018282801561039657602002820191906000526020600020905b815481526020019060010190808311610382575b50505050509050919050565b600160205281600052604060002081815481106103be57600080fd5b90600052602060002001600091509150505481565b60008060608060006002866040516103eb9190610f4b565b9081526040519081900360200190205490508061044a5760405162461bcd60e51b815260206004820152601a60248201527f48617368206e6f7420666f756e6420696e20726567697374727900000000000060448201526064016101af565b600081815260208181526040808320815160a0810190925280546001600160a01b03168252600181018054929391929184019161048690610e02565b80601f01602080910402602001604051908101604052809291908181526020018280546104b290610e02565b80156104ff5780601f106104d4576101008083540402835291602001916104ff565b820191906000526020600020905b8154815290600101906020018083116104e257829003601f168201915b505050505081526020016002820154815260200160038201805461052290610e02565b80601f016020809104026020016040519081016040528092919081815260200182805461054e90610e02565b801561059b5780601f106105705761010080835404028352916020019161059b565b820191906000526020600020905b81548152906001019060200180831161057e57829003601f168201915b505050505081526020016004820180546105b490610e02565b80601f01602080910402602001604051908101604052809291908181526020018280546105e090610e02565b801561062d5780601f106106025761010080835404028352916020019161062d565b820191906000526020600020905b81548152906001019060200180831161061057829003601f168201915b505050919092525050815160408301516060840151608090940151919b909a50929850965090945050505050565b600081815260208181526040808320815160a0810190925280546001600160a01b03168252600181018054606094869486948594879492939192918401916106a290610e02565b80601f01602080910402602001604051908101604052809291908181526020018280546106ce90610e02565b801561071b5780601f106106f05761010080835404028352916020019161071b565b820191906000526020600020905b8154815290600101906020018083116106fe57829003601f168201915b505050505081526020016002820154815260200160038201805461073e90610e02565b80601f016020809104026020016040519081016040528092919081815260200182805461076a90610e02565b80156107b75780601f1061078c576101008083540402835291602001916107b7565b820191906000526020600020905b81548152906001019060200180831161079a57829003601f168201915b505050505081526020016004820180546107d090610e02565b80601f01602080910402602001604051908101604052809291908181526020018280546107fc90610e02565b80156108495780601f1061081e57610100808354040283529160200191610849565b820191906000526020600020905b81548152906001019060200180831161082c57829003601f168201915b5050509190925250508151919250506001600160a01b03166108ad5760405162461bcd60e51b815260206004820152601760248201527f495020617373657420646f6573206e6f7420657869737400000000000000000060448201526064016101af565b8051602082015160408301516060840151608090940151929a91995097509195509350915050565b600060208190529081526040902080546001820180546001600160a01b03909216929161090190610e02565b80601f016020809104026020016040519081016040528092919081815260200182805461092d90610e02565b801561097a5780601f1061094f5761010080835404028352916020019161097a565b820191906000526020600020905b81548152906001019060200180831161095d57829003601f168201915b50505050509080600201549080600301805461099590610e02565b80601f01602080910402602001604051908101604052809291908181526020018280546109c190610e02565b8015610a0e5780601f106109e357610100808354040283529160200191610a0e565b820191906000526020600020905b8154815290600101906020018083116109f157829003601f168201915b505050505090806004018054610a2390610e02565b80601f0160208091040260200160405190810160405280929190818152602001828054610a4f90610e02565b8015610a9c5780601f10610a7157610100808354040283529160200191610a9c565b820191906000526020600020905b815481529060010190602001808311610a7f57829003601f168201915b5050505050905085565b634e487b7160e01b600052604160045260246000fd5b600082601f830112610acd57600080fd5b813567ffffffffffffffff80821115610ae857610ae8610aa6565b604051601f8301601f19908116603f01168101908282118183101715610b1057610b10610aa6565b81604052838152866020858801011115610b2957600080fd5b836020870160208301376000602085830101528094505050505092915050565b600080600060608486031215610b5e57600080fd5b833567ffffffffffffffff80821115610b7657600080fd5b610b8287838801610abc565b94506020860135915080821115610b9857600080fd5b610ba487838801610abc565b93506040860135915080821115610bba57600080fd5b50610bc786828701610abc565b9150509250925092565b600060208284031215610be357600080fd5b813567ffffffffffffffff811115610bfa57600080fd5b610c0684828501610abc565b949350505050565b80356001600160a01b0381168114610c2557600080fd5b919050565b600060208284031215610c3c57600080fd5b610c4582610c0e565b9392505050565b6020808252825182820181905260009190848201906040850190845b81811015610c8457835183529284019291840191600101610c68565b50909695505050505050565b60008060408385031215610ca357600080fd5b610cac83610c0e565b946020939093013593505050565b60005b83811015610cd5578181015183820152602001610cbd565b50506000910152565b60008151808452610cf6816020860160208601610cba565b601f01601f19169290920160200192915050565b60018060a01b0385168152836020820152608060408201526000610d316080830185610cde565b8281036060840152610d438185610cde565b979650505050505050565b600060208284031215610d6057600080fd5b5035919050565b6001600160a01b038616815260a060208201819052600090610d8b90830187610cde565b8560408401528281036060840152610da38186610cde565b90508281036080840152610db78185610cde565b98975050505050505050565b6bffffffffffffffffffffffff198460601b16815260008351610ded816014850160208801610cba565b60149201918201929092526034019392505050565b600181811c90821680610e1657607f821691505b602082108103610e3657634e487b7160e01b600052602260045260246000fd5b50919050565b601f821115610e8657600081815260208120601f850160051c81016020861015610e635750805b601f850160051c820191505b81811015610e8257828155600101610e6f565b5050505b505050565b815167ffffffffffffffff811115610ea557610ea5610aa6565b610eb981610eb38454610e02565b84610e3c565b602080601f831160018114610eee5760008415610ed65750858301515b600019600386901b1c1916600185901b178555610e82565b600085815260208120601f198616915b82811015610f1d57888601518255948401946001909101908401610efe565b5085821015610f3b5787850151600019600388901b60f8161c191681555b5050505050600190811b01905550565b60008251610f5d818460208701610cba565b9190910192915050565b604081526000610f7a6040830185610cde565b9050826020830152939250505056fea264697066735822122083f62daac731fb34a32c9e8ab558feb778986c2c1e02a4386108156242f17a1c64736f6c63430008130033",
  "linkReferences": {},
  "deployedLinkReferences": {}
}